{
  "contractName": "GenerateCoupon",
  "abi": [
    {
      "anonymous": false,
      "inputs": [
        {
          "indexed": false,
          "internalType": "bytes32",
          "name": "email",
          "type": "bytes32"
        },
        {
          "indexed": false,
          "internalType": "uint8",
          "name": "plan",
          "type": "uint8"
        }
      ],
      "name": "PayForPlan",
      "type": "event"
    },
    {
      "anonymous": false,
      "inputs": [
        {
          "indexed": false,
          "internalType": "address",
          "name": "_address",
          "type": "address"
        },
        {
          "indexed": false,
          "internalType": "uint8",
          "name": "_plan",
          "type": "uint8"
        }
      ],
      "name": "Payout",
      "type": "event"
    },
    {
      "inputs": [
        {
          "internalType": "uint256",
          "name": "",
          "type": "uint256"
        }
      ],
      "name": "Plans",
      "outputs": [
        {
          "internalType": "bytes32",
          "name": "name",
          "type": "bytes32"
        },
        {
          "internalType": "uint256",
          "name": "price",
          "type": "uint256"
        }
      ],
      "stateMutability": "view",
      "type": "function",
      "constant": true
    },
    {
      "inputs": [],
      "name": "USDNGN",
      "outputs": [
        {
          "internalType": "uint256",
          "name": "",
          "type": "uint256"
        }
      ],
      "stateMutability": "view",
      "type": "function",
      "constant": true
    },
    {
      "inputs": [],
      "name": "USDT",
      "outputs": [
        {
          "internalType": "contract ERC20Token",
          "name": "",
          "type": "address"
        }
      ],
      "stateMutability": "view",
      "type": "function",
      "constant": true
    },
    {
      "inputs": [],
      "name": "owner",
      "outputs": [
        {
          "internalType": "address",
          "name": "",
          "type": "address"
        }
      ],
      "stateMutability": "view",
      "type": "function",
      "constant": true
    },
    {
      "inputs": [
        {
          "internalType": "uint8",
          "name": "_value",
          "type": "uint8"
        }
      ],
      "name": "setEarnPercentage",
      "outputs": [],
      "stateMutability": "nonpayable",
      "type": "function"
    },
    {
      "inputs": [
        {
          "internalType": "uint256",
          "name": "_value",
          "type": "uint256"
        }
      ],
      "name": "setUSDNGNRate",
      "outputs": [],
      "stateMutability": "nonpayable",
      "type": "function"
    },
    {
      "inputs": [
        {
          "internalType": "address",
          "name": "_address",
          "type": "address"
        }
      ],
      "name": "setUsdtTokenAddress",
      "outputs": [],
      "stateMutability": "nonpayable",
      "type": "function"
    },
    {
      "inputs": [
        {
          "internalType": "address",
          "name": "_address",
          "type": "address"
        }
      ],
      "name": "transfer",
      "outputs": [],
      "stateMutability": "nonpayable",
      "type": "function"
    },
    {
      "inputs": [
        {
          "internalType": "bytes32",
          "name": "_email",
          "type": "bytes32"
        },
        {
          "internalType": "uint8",
          "name": "_plan",
          "type": "uint8"
        }
      ],
      "name": "payForPlan",
      "outputs": [],
      "stateMutability": "nonpayable",
      "type": "function"
    },
    {
      "inputs": [
        {
          "internalType": "address",
          "name": "_address",
          "type": "address"
        },
        {
          "internalType": "uint8",
          "name": "_plan",
          "type": "uint8"
        }
      ],
      "name": "payout",
      "outputs": [],
      "stateMutability": "nonpayable",
      "type": "function"
    },
    {
      "inputs": [
        {
          "internalType": "uint8",
          "name": "_planId",
          "type": "uint8"
        },
        {
          "internalType": "bytes32",
          "name": "_name",
          "type": "bytes32"
        },
        {
          "internalType": "uint256",
          "name": "_price",
          "type": "uint256"
        }
      ],
      "name": "createPlan",
      "outputs": [],
      "stateMutability": "nonpayable",
      "type": "function"
    },
    {
      "inputs": [],
      "name": "getPlans",
      "outputs": [
        {
          "components": [
            {
              "internalType": "bytes32",
              "name": "name",
              "type": "bytes32"
            },
            {
              "internalType": "uint256",
              "name": "price",
              "type": "uint256"
            }
          ],
          "internalType": "struct Storage.Plan[]",
          "name": "",
          "type": "tuple[]"
        }
      ],
      "stateMutability": "view",
      "type": "function",
      "constant": true
    },
    {
      "inputs": [
        {
          "internalType": "uint8",
          "name": "_planId",
          "type": "uint8"
        }
      ],
      "name": "getSinglePlan",
      "outputs": [
        {
          "components": [
            {
              "internalType": "bytes32",
              "name": "name",
              "type": "bytes32"
            },
            {
              "internalType": "uint256",
              "name": "price",
              "type": "uint256"
            }
          ],
          "internalType": "struct Storage.Plan",
          "name": "",
          "type": "tuple"
        }
      ],
      "stateMutability": "view",
      "type": "function",
      "constant": true
    }
  ],
  "bytecode": "0x60806040526096600460006101000a81548160ff021916908360ff1602179055506005600460016101000a81548160ff021916908360ff16021790555034801561004857600080fd5b5033600160006101000a81548173ffffffffffffffffffffffffffffffffffffffff021916908373ffffffffffffffffffffffffffffffffffffffff1602179055506114be806100996000396000f3fe608060405234801561001057600080fd5b50600436106100cf5760003560e01c80638da5cb5b1161008c578063afe97d6111610066578063afe97d61146101fd578063c54e44eb14610219578063cf995b7014610237578063d94a862b14610253576100cf565b80638da5cb5b146101a757806399703850146101c5578063ac73352a146101e1576100cf565b8063158b4aa6146100d45780631a695230146100f057806329a061f71461010c578063395713d71461013c57806381a972cd1461016d5780638c2459331461018b575b600080fd5b6100ee60048036038101906100e99190610c4b565b610271565b005b61010a60048036038101906101059190610c8b565b6103fe565b005b61012660048036038101906101219190610cb8565b6104d2565b6040516101339190610d46565b60405180910390f35b61015660048036038101906101519190610d8d565b610570565b604051610164929190610dd8565b60405180910390f35b610175610594565b6040516101829190610e01565b60405180910390f35b6101a560048036038101906101a09190610d8d565b61059a565b005b6101af610634565b6040516101bc9190610e2b565b60405180910390f35b6101df60048036038101906101da9190610e72565b61065a565b005b6101fb60048036038101906101f69190610cb8565b610849565b005b61021760048036038101906102129190610c8b565b6108f7565b005b6102216109cb565b60405161022e9190610f11565b60405180910390f35b610251600480360381019061024c9190610f2c565b6109f1565b005b61025b610ac2565b604051610268919061105d565b60405180910390f35b600160009054906101000a900473ffffffffffffffffffffffffffffffffffffffff1673ffffffffffffffffffffffffffffffffffffffff163373ffffffffffffffffffffffffffffffffffffffff1614610301576040517f08c379a00000000000000000000000000000000000000000000000000000000081526004016102f890611102565b60405180910390fd5b6000600360008360ff16815260200190815260200160002060010154905060006064600460009054906101000a900460ff1660ff16836103419190611151565b61034b91906111c2565b9050600260009054906101000a900473ffffffffffffffffffffffffffffffffffffffff1673ffffffffffffffffffffffffffffffffffffffff166323b872dd308661039685610b7c565b6040518463ffffffff1660e01b81526004016103b4939291906111f3565b6020604051808303816000875af11580156103d3573d6000803e3d6000fd5b505050506040513d601f19601f820116820180604052508101906103f79190611262565b5050505050565b600160009054906101000a900473ffffffffffffffffffffffffffffffffffffffff1673ffffffffffffffffffffffffffffffffffffffff163373ffffffffffffffffffffffffffffffffffffffff161461048e576040517f08c379a000000000000000000000000000000000000000000000000000000000815260040161048590611102565b60405180910390fd5b80600160006101000a81548173ffffffffffffffffffffffffffffffffffffffff021916908373ffffffffffffffffffffffffffffffffffffffff16021790555050565b6104da610b92565b81600460019054906101000a900460ff1660ff168160ff161115610533576040517f08c379a000000000000000000000000000000000000000000000000000000000815260040161052a90611301565b60405180910390fd5b600360008460ff16815260200190815260200160002060405180604001604052908160008201548152602001600182015481525050915050919050565b60036020528060005260406000206000915090508060000154908060010154905082565b60005481565b600160009054906101000a900473ffffffffffffffffffffffffffffffffffffffff1673ffffffffffffffffffffffffffffffffffffffff163373ffffffffffffffffffffffffffffffffffffffff161461062a576040517f08c379a000000000000000000000000000000000000000000000000000000000815260040161062190611102565b60405180910390fd5b8060008190555050565b600160009054906101000a900473ffffffffffffffffffffffffffffffffffffffff1681565b6000600360008360ff16815260200190815260200160002060010154905061068181610b7c565b600260009054906101000a900473ffffffffffffffffffffffffffffffffffffffff1673ffffffffffffffffffffffffffffffffffffffff1663dd62ed3e33306040518363ffffffff1660e01b81526004016106de929190611321565b602060405180830381865afa1580156106fb573d6000803e3d6000fd5b505050506040513d601f19601f8201168201806040525081019061071f919061135f565b1015610760576040517f08c379a0000000000000000000000000000000000000000000000000000000008152600401610757906113d8565b60405180910390fd5b600260009054906101000a900473ffffffffffffffffffffffffffffffffffffffff1673ffffffffffffffffffffffffffffffffffffffff166323b872dd33306107a985610b7c565b6040518463ffffffff1660e01b81526004016107c7939291906111f3565b6020604051808303816000875af11580156107e6573d6000803e3d6000fd5b505050506040513d601f19601f8201168201806040525081019061080a9190611262565b507f193c47baf6bb26c1e7b666e545bbac5b088cad0200536772238a44ccf9ef14a0838360405161083c929190611407565b60405180910390a1505050565b600160009054906101000a900473ffffffffffffffffffffffffffffffffffffffff1673ffffffffffffffffffffffffffffffffffffffff163373ffffffffffffffffffffffffffffffffffffffff16146108d9576040517f08c379a00000000000000000000000000000000000000000000000000000000081526004016108d090611102565b60405180910390fd5b80600460006101000a81548160ff021916908360ff16021790555050565b600160009054906101000a900473ffffffffffffffffffffffffffffffffffffffff1673ffffffffffffffffffffffffffffffffffffffff163373ffffffffffffffffffffffffffffffffffffffff1614610987576040517f08c379a000000000000000000000000000000000000000000000000000000000815260040161097e90611102565b60405180910390fd5b80600260006101000a81548173ffffffffffffffffffffffffffffffffffffffff021916908373ffffffffffffffffffffffffffffffffffffffff16021790555050565b600260009054906101000a900473ffffffffffffffffffffffffffffffffffffffff1681565b600160009054906101000a900473ffffffffffffffffffffffffffffffffffffffff1673ffffffffffffffffffffffffffffffffffffffff163373ffffffffffffffffffffffffffffffffffffffff1614610a81576040517f08c379a0000000000000000000000000000000000000000000000000000000008152600401610a7890611102565b60405180910390fd5b80600360008560ff1681526020019081526020016000206001018190555081600360008560ff16815260200190815260200160002060000181905550505050565b6060806000600190505b600460019054906101000a900460ff1660ff168160ff161015610b74576000600360008360ff1681526020019081526020016000206000015414610b6157600360008260ff16815260200190815260200160002060405180604001604052908160008201548152602001600182015481525050828260ff1681518110610b5557610b54611430565b5b60200260200101819052505b8080610b6c9061145f565b915050610acc565b508091505090565b6000805482610b8b91906111c2565b9050919050565b604051806040016040528060008019168152602001600081525090565b600080fd5b600073ffffffffffffffffffffffffffffffffffffffff82169050919050565b6000610bdf82610bb4565b9050919050565b610bef81610bd4565b8114610bfa57600080fd5b50565b600081359050610c0c81610be6565b92915050565b600060ff82169050919050565b610c2881610c12565b8114610c3357600080fd5b50565b600081359050610c4581610c1f565b92915050565b60008060408385031215610c6257610c61610baf565b5b6000610c7085828601610bfd565b9250506020610c8185828601610c36565b9150509250929050565b600060208284031215610ca157610ca0610baf565b5b6000610caf84828501610bfd565b91505092915050565b600060208284031215610cce57610ccd610baf565b5b6000610cdc84828501610c36565b91505092915050565b6000819050919050565b610cf881610ce5565b82525050565b6000819050919050565b610d1181610cfe565b82525050565b604082016000820151610d2d6000850182610cef565b506020820151610d406020850182610d08565b50505050565b6000604082019050610d5b6000830184610d17565b92915050565b610d6a81610cfe565b8114610d7557600080fd5b50565b600081359050610d8781610d61565b92915050565b600060208284031215610da357610da2610baf565b5b6000610db184828501610d78565b91505092915050565b610dc381610ce5565b82525050565b610dd281610cfe565b82525050565b6000604082019050610ded6000830185610dba565b610dfa6020830184610dc9565b9392505050565b6000602082019050610e166000830184610dc9565b92915050565b610e2581610bd4565b82525050565b6000602082019050610e406000830184610e1c565b92915050565b610e4f81610ce5565b8114610e5a57600080fd5b50565b600081359050610e6c81610e46565b92915050565b60008060408385031215610e8957610e88610baf565b5b6000610e9785828601610e5d565b9250506020610ea885828601610c36565b9150509250929050565b6000819050919050565b6000610ed7610ed2610ecd84610bb4565b610eb2565b610bb4565b9050919050565b6000610ee982610ebc565b9050919050565b6000610efb82610ede565b9050919050565b610f0b81610ef0565b82525050565b6000602082019050610f266000830184610f02565b92915050565b600080600060608486031215610f4557610f44610baf565b5b6000610f5386828701610c36565b9350506020610f6486828701610e5d565b9250506040610f7586828701610d78565b9150509250925092565b600081519050919050565b600082825260208201905092915050565b6000819050602082019050919050565b604082016000820151610fc16000850182610cef565b506020820151610fd46020850182610d08565b50505050565b6000610fe68383610fab565b60408301905092915050565b6000602082019050919050565b600061100a82610f7f565b6110148185610f8a565b935061101f83610f9b565b8060005b838110156110505781516110378882610fda565b975061104283610ff2565b925050600181019050611023565b5085935050505092915050565b600060208201905081810360008301526110778184610fff565b905092915050565b600082825260208201905092915050565b7f596f7520646f206e6f74206861766520746865207065726d6973696f6e20746f60008201527f2063616c6c2074686573652066756e6374696f6e000000000000000000000000602082015250565b60006110ec60348361107f565b91506110f782611090565b604082019050919050565b6000602082019050818103600083015261111b816110df565b9050919050565b7f4e487b7100000000000000000000000000000000000000000000000000000000600052601160045260246000fd5b600061115c82610cfe565b915061116783610cfe565b925082820261117581610cfe565b9150828204841483151761118c5761118b611122565b5b5092915050565b7f4e487b7100000000000000000000000000000000000000000000000000000000600052601260045260246000fd5b60006111cd82610cfe565b91506111d883610cfe565b9250826111e8576111e7611193565b5b828204905092915050565b60006060820190506112086000830186610e1c565b6112156020830185610e1c565b6112226040830184610dc9565b949350505050565b60008115159050919050565b61123f8161122a565b811461124a57600080fd5b50565b60008151905061125c81611236565b92915050565b60006020828403121561127857611277610baf565b5b60006112868482850161124d565b91505092915050565b7f69642069732067726561746572207468616e20616c6c6f776564206e756d626560008201527f72206f6620706c616e7300000000000000000000000000000000000000000000602082015250565b60006112eb602a8361107f565b91506112f68261128f565b604082019050919050565b6000602082019050818103600083015261131a816112de565b9050919050565b60006040820190506113366000830185610e1c565b6113436020830184610e1c565b9392505050565b60008151905061135981610d61565b92915050565b60006020828403121561137557611374610baf565b5b60006113838482850161134a565b91505092915050565b7f416465717561746520616c6c6f77616e6365206e6f7420676976656e00000000600082015250565b60006113c2601c8361107f565b91506113cd8261138c565b602082019050919050565b600060208201905081810360008301526113f1816113b5565b9050919050565b61140181610c12565b82525050565b600060408201905061141c6000830185610dba565b61142960208301846113f8565b9392505050565b7f4e487b7100000000000000000000000000000000000000000000000000000000600052603260045260246000fd5b600061146a82610c12565b915060ff820361147d5761147c611122565b5b60018201905091905056fea2646970667358221220c01a65e118d73dad3bf0f15bd343addaf6705b6ad5d4d399e83dde54949fe98c64736f6c63430008130033",
  "immutableReferences": {},
  "source": "// SPDX-License-Identifier: MIT\n\npragma solidity ^0.8;\nimport \"./Utils.sol\";\nimport \"@ganache/console.log/console.sol\";\n\ncontract GenerateCoupon is Utils {\n    event PayForPlan(bytes32 email, uint8 plan);\n    event Payout(address _address, uint8 _plan);\n\n    modifier limitPlan(uint8 _planId) {\n        require(\n            _planId <= planLimit,\n            \"id is greater than allowed number of plans\"\n        );\n        _;\n    }\n\n    function ngnToUsd(uint _value) private view returns (uint) {\n        return _value / USDNGN;\n    }\n\n    function payForPlan(bytes32 _email, uint8 _plan) public {\n        //price is always in ngn\n        uint price = Plans[_plan].price;\n\n        require(\n            USDT.allowance(msg.sender, address(this)) >= ngnToUsd(price),\n            \"Adequate allowance not given\"\n        );\n        USDT.transferFrom(msg.sender, address(this), ngnToUsd(price));\n        emit PayForPlan(_email, _plan);\n    }\n\n    function payout(address _address, uint8 _plan) public isOwner {\n        uint price = Plans[_plan].price;\n        uint value = (price * earnPercentage) / 100;\n        USDT.transferFrom(address(this), _address, ngnToUsd(value));\n    }\n\n    function createPlan(\n        uint8 _planId,\n        bytes32 _name,\n        uint256 _price\n    ) public isOwner {\n        Plans[_planId].price = _price;\n        Plans[_planId].name = _name;\n    }\n\n    function getPlans() public view returns (Plan[] memory) {\n        Plan[] memory allPlans;\n        for (uint8 x = 1; x < planLimit; x++) {\n            if (Plans[x].name != \"\") {\n                allPlans[x] = Plans[x];\n            }\n        }\n\n        return allPlans;\n    }\n\n    function getSinglePlan(\n        uint8 _planId\n    ) public view limitPlan(_planId) returns (Plan memory) {\n        return Plans[_planId];\n    }\n}\n",
  "sourcePath": "/Users/user/Documents/Projects/destiny-inv/smrt-cntract/contracts/Contract.sol",
  "compiler": {
    "name": "solc",
    "version": "0.8.19+commit.7dd6d404.Emscripten.clang"
  },
  "schemaVersion": "3.4.13",
  "updatedAt": "2023-04-29T12:22:10.291Z",
  "networkType": "ethereum",
  "devdoc": {
    "kind": "dev",
    "methods": {},
    "version": 1
  },
  "userdoc": {
    "kind": "user",
    "methods": {},
    "version": 1
  }
}