{
  "contractName": "GenerateCoupon",
  "abi": [
    {
      "anonymous": false,
      "inputs": [
        {
          "indexed": true,
          "internalType": "bytes32",
          "name": "email",
          "type": "bytes32"
        },
        {
          "indexed": false,
          "internalType": "uint8",
          "name": "plan",
          "type": "uint8"
        }
      ],
      "name": "PayForPlan",
      "type": "event"
    },
    {
      "anonymous": false,
      "inputs": [
        {
          "components": [
            {
              "internalType": "uint16",
              "name": "plan",
              "type": "uint16"
            },
            {
              "internalType": "address",
              "name": "_address",
              "type": "address"
            }
          ],
          "indexed": false,
          "internalType": "struct Storage.PayoutProperties[]",
          "name": "_data",
          "type": "tuple[]"
        }
      ],
      "name": "Payout",
      "type": "event"
    },
    {
      "inputs": [
        {
          "internalType": "uint256",
          "name": "",
          "type": "uint256"
        }
      ],
      "name": "Plans",
      "outputs": [
        {
          "internalType": "bytes32",
          "name": "name",
          "type": "bytes32"
        },
        {
          "internalType": "uint256",
          "name": "price",
          "type": "uint256"
        }
      ],
      "stateMutability": "view",
      "type": "function"
    },
    {
      "inputs": [],
      "name": "USDNGN",
      "outputs": [
        {
          "internalType": "uint256",
          "name": "",
          "type": "uint256"
        }
      ],
      "stateMutability": "view",
      "type": "function"
    },
    {
      "inputs": [],
      "name": "USDT",
      "outputs": [
        {
          "internalType": "contract ERC20Token",
          "name": "",
          "type": "address"
        }
      ],
      "stateMutability": "view",
      "type": "function"
    },
    {
      "inputs": [],
      "name": "owner",
      "outputs": [
        {
          "internalType": "address",
          "name": "",
          "type": "address"
        }
      ],
      "stateMutability": "view",
      "type": "function"
    },
    {
      "inputs": [
        {
          "internalType": "uint8",
          "name": "_value",
          "type": "uint8"
        }
      ],
      "name": "setEarnPercentage",
      "outputs": [],
      "stateMutability": "nonpayable",
      "type": "function"
    },
    {
      "inputs": [
        {
          "internalType": "uint8",
          "name": "_value",
          "type": "uint8"
        }
      ],
      "name": "setPlanLimit",
      "outputs": [],
      "stateMutability": "nonpayable",
      "type": "function"
    },
    {
      "inputs": [
        {
          "internalType": "uint256",
          "name": "_value",
          "type": "uint256"
        }
      ],
      "name": "setUSDNGNRate",
      "outputs": [],
      "stateMutability": "nonpayable",
      "type": "function"
    },
    {
      "inputs": [
        {
          "internalType": "address",
          "name": "_address",
          "type": "address"
        }
      ],
      "name": "setUsdtTokenAddress",
      "outputs": [],
      "stateMutability": "nonpayable",
      "type": "function"
    },
    {
      "inputs": [
        {
          "internalType": "address",
          "name": "_address",
          "type": "address"
        }
      ],
      "name": "transfer",
      "outputs": [],
      "stateMutability": "nonpayable",
      "type": "function"
    },
    {
      "inputs": [
        {
          "internalType": "bytes32",
          "name": "_email",
          "type": "bytes32"
        },
        {
          "internalType": "uint8",
          "name": "_plan",
          "type": "uint8"
        }
      ],
      "name": "payForPlan",
      "outputs": [],
      "stateMutability": "nonpayable",
      "type": "function"
    },
    {
      "inputs": [
        {
          "components": [
            {
              "internalType": "uint16",
              "name": "plan",
              "type": "uint16"
            },
            {
              "internalType": "address",
              "name": "_address",
              "type": "address"
            }
          ],
          "internalType": "struct Storage.PayoutProperties[]",
          "name": "_data",
          "type": "tuple[]"
        }
      ],
      "name": "payout",
      "outputs": [],
      "stateMutability": "nonpayable",
      "type": "function"
    },
    {
      "inputs": [
        {
          "internalType": "uint8",
          "name": "_planId",
          "type": "uint8"
        },
        {
          "internalType": "bytes32",
          "name": "_name",
          "type": "bytes32"
        },
        {
          "internalType": "uint256",
          "name": "_price",
          "type": "uint256"
        }
      ],
      "name": "createPlan",
      "outputs": [],
      "stateMutability": "nonpayable",
      "type": "function"
    },
    {
      "inputs": [],
      "name": "getPlans",
      "outputs": [
        {
          "components": [
            {
              "internalType": "bytes32",
              "name": "name",
              "type": "bytes32"
            },
            {
              "internalType": "uint256",
              "name": "price",
              "type": "uint256"
            }
          ],
          "internalType": "struct Storage.Plan[]",
          "name": "",
          "type": "tuple[]"
        }
      ],
      "stateMutability": "view",
      "type": "function"
    },
    {
      "inputs": [
        {
          "internalType": "uint8",
          "name": "_planId",
          "type": "uint8"
        }
      ],
      "name": "getSinglePlan",
      "outputs": [
        {
          "components": [
            {
              "internalType": "bytes32",
              "name": "name",
              "type": "bytes32"
            },
            {
              "internalType": "uint256",
              "name": "price",
              "type": "uint256"
            }
          ],
          "internalType": "struct Storage.Plan",
          "name": "",
          "type": "tuple"
        }
      ],
      "stateMutability": "view",
      "type": "function"
    },
    {
      "inputs": [
        {
          "internalType": "address",
          "name": "_address",
          "type": "address"
        },
        {
          "internalType": "uint256",
          "name": "_value",
          "type": "uint256"
        }
      ],
      "name": "withdraw",
      "outputs": [],
      "stateMutability": "nonpayable",
      "type": "function"
    }
  ],
  "bytecode": "0x60806040526096600460006101000a81548160ff021916908360ff1602179055506005600460016101000a81548160ff021916908360ff16021790555034801561004857600080fd5b5033600160006101000a81548173ffffffffffffffffffffffffffffffffffffffff021916908373ffffffffffffffffffffffffffffffffffffffff160217905550611e82806100996000396000f3fe608060405234801561001057600080fd5b50600436106100f55760003560e01c80638da5cb5b11610097578063c54e44eb11610066578063c54e44eb1461025b578063cf995b7014610279578063d94a862b14610295578063f3fef3a3146102b3576100f5565b80638da5cb5b146101e95780639970385014610207578063ac73352a14610223578063afe97d611461023f576100f5565b8063395713d7116100d3578063395713d71461016257806376fa31681461019357806381a972cd146101af5780638c245933146101cd576100f5565b806317a3be8a146100fa5780631a6952301461011657806329a061f714610132575b600080fd5b610114600480360381019061010f91906111e0565b6102cf565b005b610130600480360381019061012b9190611229565b6104f3565b005b61014c6004803603810190610147919061128f565b6105c7565b604051610159919061131d565b60405180910390f35b61017c60048036038101906101779190611364565b610665565b60405161018a9291906113af565b60405180910390f35b6101ad60048036038101906101a8919061128f565b610689565b005b6101b7610737565b6040516101c491906113d8565b60405180910390f35b6101e760048036038101906101e29190611364565b61073d565b005b6101f16107d7565b6040516101fe9190611402565b60405180910390f35b610221600480360381019061021c9190611449565b6107fd565b005b61023d6004803603810190610238919061128f565b6109eb565b005b61025960048036038101906102549190611229565b610a99565b005b610263610b6d565b60405161027091906114e8565b60405180910390f35b610293600480360381019061028e9190611503565b610b93565b005b61029d610cbb565b6040516102aa9190611634565b60405180910390f35b6102cd60048036038101906102c89190611656565b610d75565b005b600160009054906101000a900473ffffffffffffffffffffffffffffffffffffffff1673ffffffffffffffffffffffffffffffffffffffff163373ffffffffffffffffffffffffffffffffffffffff161461035f576040517f08c379a000000000000000000000000000000000000000000000000000000000815260040161035690611719565b60405180910390fd5b60005b81518110156104b85760008282815181106103805761037f611739565b5b60200260200101516000015190506000600360008361ffff16815260200190815260200160002060010154905060006064600460009054906101000a900460ff1660ff16836103cf9190611797565b6103d99190611808565b9050600260009054906101000a900473ffffffffffffffffffffffffffffffffffffffff1673ffffffffffffffffffffffffffffffffffffffff1663a9059cbb86868151811061042c5761042b611739565b5b60200260200101516020015161044184610eac565b6040518363ffffffff1660e01b815260040161045e929190611839565b6020604051808303816000875af115801561047d573d6000803e3d6000fd5b505050506040513d601f19601f820116820180604052508101906104a1919061189a565b5050505080806104b0906118c7565b915050610362565b507ff19ae3bb4ebb6b71c49e4de3fa31e2f2aaeb7b50fd35f36f12ce2d83a383f228816040516104e89190611a0b565b60405180910390a150565b600160009054906101000a900473ffffffffffffffffffffffffffffffffffffffff1673ffffffffffffffffffffffffffffffffffffffff163373ffffffffffffffffffffffffffffffffffffffff1614610583576040517f08c379a000000000000000000000000000000000000000000000000000000000815260040161057a90611719565b60405180910390fd5b80600160006101000a81548173ffffffffffffffffffffffffffffffffffffffff021916908373ffffffffffffffffffffffffffffffffffffffff16021790555050565b6105cf610f69565b81600460019054906101000a900460ff1660ff168160ff161115610628576040517f08c379a000000000000000000000000000000000000000000000000000000000815260040161061f90611a9f565b60405180910390fd5b600360008460ff16815260200190815260200160002060405180604001604052908160008201548152602001600182015481525050915050919050565b60036020528060005260406000206000915090508060000154908060010154905082565b600160009054906101000a900473ffffffffffffffffffffffffffffffffffffffff1673ffffffffffffffffffffffffffffffffffffffff163373ffffffffffffffffffffffffffffffffffffffff1614610719576040517f08c379a000000000000000000000000000000000000000000000000000000000815260040161071090611719565b60405180910390fd5b80600460016101000a81548160ff021916908360ff16021790555050565b60005481565b600160009054906101000a900473ffffffffffffffffffffffffffffffffffffffff1673ffffffffffffffffffffffffffffffffffffffff163373ffffffffffffffffffffffffffffffffffffffff16146107cd576040517f08c379a00000000000000000000000000000000000000000000000000000000081526004016107c490611719565b60405180910390fd5b8060008190555050565b600160009054906101000a900473ffffffffffffffffffffffffffffffffffffffff1681565b6000600360008360ff16815260200190815260200160002060010154905061082481610eac565b600260009054906101000a900473ffffffffffffffffffffffffffffffffffffffff1673ffffffffffffffffffffffffffffffffffffffff1663dd62ed3e33306040518363ffffffff1660e01b8152600401610881929190611abf565b602060405180830381865afa15801561089e573d6000803e3d6000fd5b505050506040513d601f19601f820116820180604052508101906108c29190611afd565b1015610903576040517f08c379a00000000000000000000000000000000000000000000000000000000081526004016108fa90611b76565b60405180910390fd5b600260009054906101000a900473ffffffffffffffffffffffffffffffffffffffff1673ffffffffffffffffffffffffffffffffffffffff166323b872dd333061094c85610eac565b6040518463ffffffff1660e01b815260040161096a93929190611b96565b6020604051808303816000875af1158015610989573d6000803e3d6000fd5b505050506040513d601f19601f820116820180604052508101906109ad919061189a565b50827f193c47baf6bb26c1e7b666e545bbac5b088cad0200536772238a44ccf9ef14a0836040516109de9190611bdc565b60405180910390a2505050565b600160009054906101000a900473ffffffffffffffffffffffffffffffffffffffff1673ffffffffffffffffffffffffffffffffffffffff163373ffffffffffffffffffffffffffffffffffffffff1614610a7b576040517f08c379a0000000000000000000000000000000000000000000000000000000008152600401610a7290611719565b60405180910390fd5b80600460006101000a81548160ff021916908360ff16021790555050565b600160009054906101000a900473ffffffffffffffffffffffffffffffffffffffff1673ffffffffffffffffffffffffffffffffffffffff163373ffffffffffffffffffffffffffffffffffffffff1614610b29576040517f08c379a0000000000000000000000000000000000000000000000000000000008152600401610b2090611719565b60405180910390fd5b80600260006101000a81548173ffffffffffffffffffffffffffffffffffffffff021916908373ffffffffffffffffffffffffffffffffffffffff16021790555050565b600260009054906101000a900473ffffffffffffffffffffffffffffffffffffffff1681565b600160009054906101000a900473ffffffffffffffffffffffffffffffffffffffff1673ffffffffffffffffffffffffffffffffffffffff163373ffffffffffffffffffffffffffffffffffffffff1614610c23576040517f08c379a0000000000000000000000000000000000000000000000000000000008152600401610c1a90611719565b60405180910390fd5b600460019054906101000a900460ff1660ff168360ff1610610c7a576040517f08c379a0000000000000000000000000000000000000000000000000000000008152600401610c7190611c43565b60405180910390fd5b80600360008560ff1681526020019081526020016000206001018190555081600360008560ff16815260200190815260200160002060000181905550505050565b6060806000600190505b600460019054906101000a900460ff1660ff168160ff161015610d6d576000600360008360ff1681526020019081526020016000206000015414610d5a57600360008260ff16815260200190815260200160002060405180604001604052908160008201548152602001600182015481525050828260ff1681518110610d4e57610d4d611739565b5b60200260200101819052505b8080610d6590611c63565b915050610cc5565b508091505090565b600160009054906101000a900473ffffffffffffffffffffffffffffffffffffffff1673ffffffffffffffffffffffffffffffffffffffff163373ffffffffffffffffffffffffffffffffffffffff1614610e05576040517f08c379a0000000000000000000000000000000000000000000000000000000008152600401610dfc90611719565b60405180910390fd5b600260009054906101000a900473ffffffffffffffffffffffffffffffffffffffff1673ffffffffffffffffffffffffffffffffffffffff166323b872dd3084846040518463ffffffff1660e01b8152600401610e6493929190611b96565b6020604051808303816000875af1158015610e83573d6000803e3d6000fd5b505050506040513d601f19601f82011682018060405250810190610ea7919061189a565b505050565b60008054600260009054906101000a900473ffffffffffffffffffffffffffffffffffffffff1673ffffffffffffffffffffffffffffffffffffffff1663313ce5676040518163ffffffff1660e01b8152600401602060405180830381865afa158015610f1d573d6000803e3d6000fd5b505050506040513d601f19601f82011682018060405250810190610f419190611ca1565b600a610f4d9190611e01565b83610f589190611797565b610f629190611808565b9050919050565b604051806040016040528060008019168152602001600081525090565b6000604051905090565b600080fd5b600080fd5b600080fd5b6000601f19601f8301169050919050565b7f4e487b7100000000000000000000000000000000000000000000000000000000600052604160045260246000fd5b610fe882610f9f565b810181811067ffffffffffffffff8211171561100757611006610fb0565b5b80604052505050565b600061101a610f86565b90506110268282610fdf565b919050565b600067ffffffffffffffff82111561104657611045610fb0565b5b602082029050602081019050919050565b600080fd5b600080fd5b600061ffff82169050919050565b61107881611061565b811461108357600080fd5b50565b6000813590506110958161106f565b92915050565b600073ffffffffffffffffffffffffffffffffffffffff82169050919050565b60006110c68261109b565b9050919050565b6110d6816110bb565b81146110e157600080fd5b50565b6000813590506110f3816110cd565b92915050565b60006040828403121561110f5761110e61105c565b5b6111196040611010565b9050600061112984828501611086565b600083015250602061113d848285016110e4565b60208301525092915050565b600061115c6111578461102b565b611010565b9050808382526020820190506040840283018581111561117f5761117e611057565b5b835b818110156111a8578061119488826110f9565b845260208401935050604081019050611181565b5050509392505050565b600082601f8301126111c7576111c6610f9a565b5b81356111d7848260208601611149565b91505092915050565b6000602082840312156111f6576111f5610f90565b5b600082013567ffffffffffffffff81111561121457611213610f95565b5b611220848285016111b2565b91505092915050565b60006020828403121561123f5761123e610f90565b5b600061124d848285016110e4565b91505092915050565b600060ff82169050919050565b61126c81611256565b811461127757600080fd5b50565b60008135905061128981611263565b92915050565b6000602082840312156112a5576112a4610f90565b5b60006112b38482850161127a565b91505092915050565b6000819050919050565b6112cf816112bc565b82525050565b6000819050919050565b6112e8816112d5565b82525050565b60408201600082015161130460008501826112c6565b50602082015161131760208501826112df565b50505050565b600060408201905061133260008301846112ee565b92915050565b611341816112d5565b811461134c57600080fd5b50565b60008135905061135e81611338565b92915050565b60006020828403121561137a57611379610f90565b5b60006113888482850161134f565b91505092915050565b61139a816112bc565b82525050565b6113a9816112d5565b82525050565b60006040820190506113c46000830185611391565b6113d160208301846113a0565b9392505050565b60006020820190506113ed60008301846113a0565b92915050565b6113fc816110bb565b82525050565b600060208201905061141760008301846113f3565b92915050565b611426816112bc565b811461143157600080fd5b50565b6000813590506114438161141d565b92915050565b600080604083850312156114605761145f610f90565b5b600061146e85828601611434565b925050602061147f8582860161127a565b9150509250929050565b6000819050919050565b60006114ae6114a96114a48461109b565b611489565b61109b565b9050919050565b60006114c082611493565b9050919050565b60006114d2826114b5565b9050919050565b6114e2816114c7565b82525050565b60006020820190506114fd60008301846114d9565b92915050565b60008060006060848603121561151c5761151b610f90565b5b600061152a8682870161127a565b935050602061153b86828701611434565b925050604061154c8682870161134f565b9150509250925092565b600081519050919050565b600082825260208201905092915050565b6000819050602082019050919050565b60408201600082015161159860008501826112c6565b5060208201516115ab60208501826112df565b50505050565b60006115bd8383611582565b60408301905092915050565b6000602082019050919050565b60006115e182611556565b6115eb8185611561565b93506115f683611572565b8060005b8381101561162757815161160e88826115b1565b9750611619836115c9565b9250506001810190506115fa565b5085935050505092915050565b6000602082019050818103600083015261164e81846115d6565b905092915050565b6000806040838503121561166d5761166c610f90565b5b600061167b858286016110e4565b925050602061168c8582860161134f565b9150509250929050565b600082825260208201905092915050565b7f596f7520646f206e6f74206861766520746865207065726d6973696f6e20746f60008201527f2063616c6c2074686573652066756e6374696f6e000000000000000000000000602082015250565b6000611703603483611696565b915061170e826116a7565b604082019050919050565b60006020820190508181036000830152611732816116f6565b9050919050565b7f4e487b7100000000000000000000000000000000000000000000000000000000600052603260045260246000fd5b7f4e487b7100000000000000000000000000000000000000000000000000000000600052601160045260246000fd5b60006117a2826112d5565b91506117ad836112d5565b92508282026117bb816112d5565b915082820484148315176117d2576117d1611768565b5b5092915050565b7f4e487b7100000000000000000000000000000000000000000000000000000000600052601260045260246000fd5b6000611813826112d5565b915061181e836112d5565b92508261182e5761182d6117d9565b5b828204905092915050565b600060408201905061184e60008301856113f3565b61185b60208301846113a0565b9392505050565b60008115159050919050565b61187781611862565b811461188257600080fd5b50565b6000815190506118948161186e565b92915050565b6000602082840312156118b0576118af610f90565b5b60006118be84828501611885565b91505092915050565b60006118d2826112d5565b91507fffffffffffffffffffffffffffffffffffffffffffffffffffffffffffffffff820361190457611903611768565b5b600182019050919050565b600081519050919050565b600082825260208201905092915050565b6000819050602082019050919050565b61194481611061565b82525050565b611953816110bb565b82525050565b60408201600082015161196f600085018261193b565b506020820151611982602085018261194a565b50505050565b60006119948383611959565b60408301905092915050565b6000602082019050919050565b60006119b88261190f565b6119c2818561191a565b93506119cd8361192b565b8060005b838110156119fe5781516119e58882611988565b97506119f0836119a0565b9250506001810190506119d1565b5085935050505092915050565b60006020820190508181036000830152611a2581846119ad565b905092915050565b7f69642069732067726561746572207468616e20616c6c6f776564206e756d626560008201527f72206f6620706c616e7300000000000000000000000000000000000000000000602082015250565b6000611a89602a83611696565b9150611a9482611a2d565b604082019050919050565b60006020820190508181036000830152611ab881611a7c565b9050919050565b6000604082019050611ad460008301856113f3565b611ae160208301846113f3565b9392505050565b600081519050611af781611338565b92915050565b600060208284031215611b1357611b12610f90565b5b6000611b2184828501611ae8565b91505092915050565b7f416465717561746520616c6c6f77616e6365206e6f7420676976656e00000000600082015250565b6000611b60601c83611696565b9150611b6b82611b2a565b602082019050919050565b60006020820190508181036000830152611b8f81611b53565b9050919050565b6000606082019050611bab60008301866113f3565b611bb860208301856113f3565b611bc560408301846113a0565b949350505050565b611bd681611256565b82525050565b6000602082019050611bf16000830184611bcd565b92915050565b7f506c616e2067726561746572207468616e206c696d6974000000000000000000600082015250565b6000611c2d601783611696565b9150611c3882611bf7565b602082019050919050565b60006020820190508181036000830152611c5c81611c20565b9050919050565b6000611c6e82611256565b915060ff8203611c8157611c80611768565b5b600182019050919050565b600081519050611c9b81611263565b92915050565b600060208284031215611cb757611cb6610f90565b5b6000611cc584828501611c8c565b91505092915050565b60008160011c9050919050565b6000808291508390505b6001851115611d2557808604811115611d0157611d00611768565b5b6001851615611d105780820291505b8081029050611d1e85611cce565b9450611ce5565b94509492505050565b600082611d3e5760019050611dfa565b81611d4c5760009050611dfa565b8160018114611d625760028114611d6c57611d9b565b6001915050611dfa565b60ff841115611d7e57611d7d611768565b5b8360020a915084821115611d9557611d94611768565b5b50611dfa565b5060208310610133831016604e8410600b8410161715611dd05782820a905083811115611dcb57611dca611768565b5b611dfa565b611ddd8484846001611cdb565b92509050818404811115611df457611df3611768565b5b81810290505b9392505050565b6000611e0c826112d5565b9150611e1783611256565b9250611e447fffffffffffffffffffffffffffffffffffffffffffffffffffffffffffffffff8484611d2e565b90509291505056fea264697066735822122021e5d0ddaa6daa97736379eb61ca37217d3ed5038b0e5e87a17284c2b70d00b764736f6c63430008130033",
  "immutableReferences": {},
  "source": "// SPDX-License-Identifier: MIT\n\npragma solidity ^0.8;\nimport \"./Utils.sol\";\nimport \"@ganache/console.log/console.sol\";\n\ncontract GenerateCoupon is Utils {\n    event PayForPlan(bytes32 indexed email, uint8 plan);\n    event Payout(PayoutProperties[] _data);\n\n    modifier limitPlan(uint8 _planId) {\n        require(\n            _planId <= planLimit,\n            \"id is greater than allowed number of plans\"\n        );\n        _;\n    }\n\n    function ngnToUsd(uint _value) private view returns (uint) {\n        return ((_value * 10 ** USDT.decimals()) / USDNGN);\n    }\n\n    function payForPlan(bytes32 _email, uint8 _plan) public {\n        //price is always in ngn\n        uint price = Plans[_plan].price;\n        // console.log(price, ngnToUsd(price));\n        require(\n            USDT.allowance(msg.sender, address(this)) >= ngnToUsd(price),\n            \"Adequate allowance not given\"\n        );\n        USDT.transferFrom(msg.sender, address(this), ngnToUsd(price));\n        emit PayForPlan(_email, _plan);\n    }\n\n    function payout(PayoutProperties[] memory _data) public isOwner {\n        for (uint256 count; count < _data.length; count++) {\n            uint16 _plan = _data[count].plan;\n            uint price = Plans[_plan].price;\n            uint value = (price * earnPercentage) / 100;\n            USDT.transfer(_data[count]._address, ngnToUsd(value));\n        }\n        emit Payout(_data);\n    }\n\n    function createPlan(\n        uint8 _planId,\n        bytes32 _name,\n        uint256 _price\n    ) public isOwner {\n        require(_planId < planLimit, \"Plan greater than limit\");\n        Plans[_planId].price = _price;\n        Plans[_planId].name = _name;\n    }\n\n    function getPlans() public view returns (Plan[] memory) {\n        Plan[] memory allPlans;\n        for (uint8 x = 1; x < planLimit; x++) {\n            if (Plans[x].name != \"\") {\n                allPlans[x] = Plans[x];\n            }\n        }\n\n        return allPlans;\n    }\n\n    function getSinglePlan(\n        uint8 _planId\n    ) public view limitPlan(_planId) returns (Plan memory) {\n        return Plans[_planId];\n    }\n\n    function withdraw(address _address, uint256 _value) public isOwner {\n        USDT.transferFrom(address(this), _address, _value);\n    }\n}\n",
  "sourcePath": "/Users/user/Documents/Projects/destiny-inv/smrt-cntract/contracts/Contract.sol",
  "compiler": {
    "name": "solc",
    "version": "0.8.19+commit.7dd6d404.Emscripten.clang"
  },
  "schemaVersion": "3.4.13",
  "updatedAt": "2023-06-08T17:04:38.126Z",
  "devdoc": {
    "kind": "dev",
    "methods": {},
    "version": 1
  },
  "userdoc": {
    "kind": "user",
    "methods": {},
    "version": 1
  }
}