{
  "contractName": "Storage",
  "abi": [
    {
      "inputs": [],
      "stateMutability": "nonpayable",
      "type": "constructor"
    },
    {
      "inputs": [
        {
          "internalType": "uint256",
          "name": "",
          "type": "uint256"
        }
      ],
      "name": "Plans",
      "outputs": [
        {
          "internalType": "bytes32",
          "name": "name",
          "type": "bytes32"
        },
        {
          "internalType": "uint256",
          "name": "price",
          "type": "uint256"
        }
      ],
      "stateMutability": "view",
      "type": "function"
    },
    {
      "inputs": [],
      "name": "USDNGN",
      "outputs": [
        {
          "internalType": "uint256",
          "name": "",
          "type": "uint256"
        }
      ],
      "stateMutability": "view",
      "type": "function"
    },
    {
      "inputs": [],
      "name": "USDT",
      "outputs": [
        {
          "internalType": "contract ERC20Token",
          "name": "",
          "type": "address"
        }
      ],
      "stateMutability": "view",
      "type": "function"
    },
    {
      "inputs": [],
      "name": "owner",
      "outputs": [
        {
          "internalType": "address",
          "name": "",
          "type": "address"
        }
      ],
      "stateMutability": "view",
      "type": "function"
    }
  ],
  "bytecode": "0x60806040526096600460006101000a81548160ff021916908360ff1602179055506005600460016101000a81548160ff021916908360ff16021790555034801561004857600080fd5b5033600160006101000a81548173ffffffffffffffffffffffffffffffffffffffff021916908373ffffffffffffffffffffffffffffffffffffffff160217905550610332806100996000396000f3fe608060405234801561001057600080fd5b506004361061004c5760003560e01c8063395713d71461005157806381a972cd146100825780638da5cb5b146100a0578063c54e44eb146100be575b600080fd5b61006b6004803603810190610066919061018d565b6100dc565b6040516100799291906101e2565b60405180910390f35b61008a610100565b604051610097919061020b565b60405180910390f35b6100a8610106565b6040516100b59190610267565b60405180910390f35b6100c661012c565b6040516100d391906102e1565b60405180910390f35b60036020528060005260406000206000915090508060000154908060010154905082565b60005481565b600160009054906101000a900473ffffffffffffffffffffffffffffffffffffffff1681565b600260009054906101000a900473ffffffffffffffffffffffffffffffffffffffff1681565b600080fd5b6000819050919050565b61016a81610157565b811461017557600080fd5b50565b60008135905061018781610161565b92915050565b6000602082840312156101a3576101a2610152565b5b60006101b184828501610178565b91505092915050565b6000819050919050565b6101cd816101ba565b82525050565b6101dc81610157565b82525050565b60006040820190506101f760008301856101c4565b61020460208301846101d3565b9392505050565b600060208201905061022060008301846101d3565b92915050565b600073ffffffffffffffffffffffffffffffffffffffff82169050919050565b600061025182610226565b9050919050565b61026181610246565b82525050565b600060208201905061027c6000830184610258565b92915050565b6000819050919050565b60006102a76102a261029d84610226565b610282565b610226565b9050919050565b60006102b98261028c565b9050919050565b60006102cb826102ae565b9050919050565b6102db816102c0565b82525050565b60006020820190506102f660008301846102d2565b9291505056fea2646970667358221220ecc76ee7dcc05a85af4dc614553d0805e979c62df569645a36deea541c1edf3f64736f6c63430008130033",
  "immutableReferences": {},
  "source": "// SPDX-License-Identifier: MIT\n\npragma solidity ^0.8;\n\nabstract contract ERC20Token {\n    function allowance(\n        address _owner,\n        address _spender\n    ) public view virtual returns (uint256 remaining);\n\n    function decimals() public view virtual returns (uint8);\n\n    function transferFrom(\n        address _from,\n        address _to,\n        uint256 _value\n    ) public virtual returns (bool success);\n}\n\ncontract Storage {\n    constructor() {\n        owner = msg.sender;\n    }\n\n    uint256 public USDNGN;\n    address public owner;\n    ERC20Token public USDT;\n    struct Plan {\n        bytes32 name;\n        uint price;\n    }\n    mapping(uint => Plan) public Plans;\n\n    uint8 earnPercentage = 150;\n    uint8 planLimit = 5;\n}\n",
  "sourcePath": "/Users/user/Documents/Projects/destiny-inv/smrt-cntract/contracts/Storage.sol",
  "compiler": {
    "name": "solc",
    "version": "0.8.19+commit.7dd6d404.Emscripten.clang"
  },
  "schemaVersion": "3.4.13",
  "updatedAt": "2023-04-29T12:22:09.309Z",
  "devdoc": {
    "kind": "dev",
    "methods": {},
    "version": 1
  },
  "userdoc": {
    "kind": "user",
    "methods": {},
    "version": 1
  }
}