{
  "contractName": "Utils",
  "abi": [
    {
      "inputs": [
        {
          "internalType": "uint256",
          "name": "",
          "type": "uint256"
        }
      ],
      "name": "Plans",
      "outputs": [
        {
          "internalType": "bytes32",
          "name": "name",
          "type": "bytes32"
        },
        {
          "internalType": "uint256",
          "name": "price",
          "type": "uint256"
        }
      ],
      "stateMutability": "view",
      "type": "function"
    },
    {
      "inputs": [],
      "name": "USDNGN",
      "outputs": [
        {
          "internalType": "uint256",
          "name": "",
          "type": "uint256"
        }
      ],
      "stateMutability": "view",
      "type": "function"
    },
    {
      "inputs": [],
      "name": "USDT",
      "outputs": [
        {
          "internalType": "contract ERC20Token",
          "name": "",
          "type": "address"
        }
      ],
      "stateMutability": "view",
      "type": "function"
    },
    {
      "inputs": [],
      "name": "owner",
      "outputs": [
        {
          "internalType": "address",
          "name": "",
          "type": "address"
        }
      ],
      "stateMutability": "view",
      "type": "function"
    },
    {
      "inputs": [
        {
          "internalType": "address",
          "name": "_address",
          "type": "address"
        }
      ],
      "name": "transfer",
      "outputs": [],
      "stateMutability": "nonpayable",
      "type": "function"
    },
    {
      "inputs": [
        {
          "internalType": "uint256",
          "name": "_value",
          "type": "uint256"
        }
      ],
      "name": "setUSDNGNRate",
      "outputs": [],
      "stateMutability": "nonpayable",
      "type": "function"
    },
    {
      "inputs": [
        {
          "internalType": "address",
          "name": "_address",
          "type": "address"
        }
      ],
      "name": "setUsdtTokenAddress",
      "outputs": [],
      "stateMutability": "nonpayable",
      "type": "function"
    },
    {
      "inputs": [
        {
          "internalType": "uint8",
          "name": "_value",
          "type": "uint8"
        }
      ],
      "name": "setEarnPercentage",
      "outputs": [],
      "stateMutability": "nonpayable",
      "type": "function"
    }
  ],
  "bytecode": "0x60806040526096600460006101000a81548160ff021916908360ff1602179055506005600460016101000a81548160ff021916908360ff16021790555034801561004857600080fd5b5033600160006101000a81548173ffffffffffffffffffffffffffffffffffffffff021916908373ffffffffffffffffffffffffffffffffffffffff160217905550610830806100996000396000f3fe608060405234801561001057600080fd5b50600436106100885760003560e01c80638da5cb5b1161005b5780638da5cb5b14610114578063ac73352a14610132578063afe97d611461014e578063c54e44eb1461016a57610088565b80631a6952301461008d578063395713d7146100a957806381a972cd146100da5780638c245933146100f8575b600080fd5b6100a760048036038101906100a29190610551565b610188565b005b6100c360048036038101906100be91906105b4565b61025c565b6040516100d1929190610609565b60405180910390f35b6100e2610280565b6040516100ef9190610632565b60405180910390f35b610112600480360381019061010d91906105b4565b610286565b005b61011c610320565b604051610129919061065c565b60405180910390f35b61014c600480360381019061014791906106b0565b610346565b005b61016860048036038101906101639190610551565b6103f4565b005b6101726104c8565b60405161017f919061073c565b60405180910390f35b600160009054906101000a900473ffffffffffffffffffffffffffffffffffffffff1673ffffffffffffffffffffffffffffffffffffffff163373ffffffffffffffffffffffffffffffffffffffff1614610218576040517f08c379a000000000000000000000000000000000000000000000000000000000815260040161020f906107da565b60405180910390fd5b80600160006101000a81548173ffffffffffffffffffffffffffffffffffffffff021916908373ffffffffffffffffffffffffffffffffffffffff16021790555050565b60036020528060005260406000206000915090508060000154908060010154905082565b60005481565b600160009054906101000a900473ffffffffffffffffffffffffffffffffffffffff1673ffffffffffffffffffffffffffffffffffffffff163373ffffffffffffffffffffffffffffffffffffffff1614610316576040517f08c379a000000000000000000000000000000000000000000000000000000000815260040161030d906107da565b60405180910390fd5b8060008190555050565b600160009054906101000a900473ffffffffffffffffffffffffffffffffffffffff1681565b600160009054906101000a900473ffffffffffffffffffffffffffffffffffffffff1673ffffffffffffffffffffffffffffffffffffffff163373ffffffffffffffffffffffffffffffffffffffff16146103d6576040517f08c379a00000000000000000000000000000000000000000000000000000000081526004016103cd906107da565b60405180910390fd5b80600460006101000a81548160ff021916908360ff16021790555050565b600160009054906101000a900473ffffffffffffffffffffffffffffffffffffffff1673ffffffffffffffffffffffffffffffffffffffff163373ffffffffffffffffffffffffffffffffffffffff1614610484576040517f08c379a000000000000000000000000000000000000000000000000000000000815260040161047b906107da565b60405180910390fd5b80600260006101000a81548173ffffffffffffffffffffffffffffffffffffffff021916908373ffffffffffffffffffffffffffffffffffffffff16021790555050565b600260009054906101000a900473ffffffffffffffffffffffffffffffffffffffff1681565b600080fd5b600073ffffffffffffffffffffffffffffffffffffffff82169050919050565b600061051e826104f3565b9050919050565b61052e81610513565b811461053957600080fd5b50565b60008135905061054b81610525565b92915050565b600060208284031215610567576105666104ee565b5b60006105758482850161053c565b91505092915050565b6000819050919050565b6105918161057e565b811461059c57600080fd5b50565b6000813590506105ae81610588565b92915050565b6000602082840312156105ca576105c96104ee565b5b60006105d88482850161059f565b91505092915050565b6000819050919050565b6105f4816105e1565b82525050565b6106038161057e565b82525050565b600060408201905061061e60008301856105eb565b61062b60208301846105fa565b9392505050565b600060208201905061064760008301846105fa565b92915050565b61065681610513565b82525050565b6000602082019050610671600083018461064d565b92915050565b600060ff82169050919050565b61068d81610677565b811461069857600080fd5b50565b6000813590506106aa81610684565b92915050565b6000602082840312156106c6576106c56104ee565b5b60006106d48482850161069b565b91505092915050565b6000819050919050565b60006107026106fd6106f8846104f3565b6106dd565b6104f3565b9050919050565b6000610714826106e7565b9050919050565b600061072682610709565b9050919050565b6107368161071b565b82525050565b6000602082019050610751600083018461072d565b92915050565b600082825260208201905092915050565b7f596f7520646f206e6f74206861766520746865207065726d6973696f6e20746f60008201527f2063616c6c2074686573652066756e6374696f6e000000000000000000000000602082015250565b60006107c4603483610757565b91506107cf82610768565b604082019050919050565b600060208201905081810360008301526107f3816107b7565b905091905056fea2646970667358221220ba38cc4dd8b28c6ae4ea8b5c104baba0fc4dfafb0e7c78142026ec783ad0b20d64736f6c63430008130033",
  "immutableReferences": {},
  "source": "// SPDX-License-Identifier: MIT\npragma solidity ^0.8;\nimport \"./Storage.sol\";\n\ncontract Utils is Storage {\n    modifier isOwner() {\n        require(\n            msg.sender == owner,\n            \"You do not have the permision to call these function\"\n        );\n        _;\n    }\n\n    function transfer(address _address) public isOwner {\n        owner = _address;\n    }\n\n    function setUSDNGNRate(uint256 _value) public isOwner {\n        USDNGN = _value;\n    }\n\n    function setUsdtTokenAddress(address _address) public isOwner {\n        USDT = ERC20Token(_address);\n    }\n\n    function setEarnPercentage(uint8 _value) public isOwner {\n        earnPercentage = _value;\n    }\n}\n",
  "sourcePath": "/Users/user/Documents/Projects/destiny-inv/smrt-cntract/contracts/Utils.sol",
  "compiler": {
    "name": "solc",
    "version": "0.8.19+commit.7dd6d404.Emscripten.clang"
  },
  "schemaVersion": "3.4.13",
  "updatedAt": "2023-04-29T12:22:09.310Z",
  "devdoc": {
    "kind": "dev",
    "methods": {},
    "version": 1
  },
  "userdoc": {
    "kind": "user",
    "methods": {},
    "version": 1
  }
}