{
  "contractName": "Utils",
  "abi": [
    {
      "inputs": [
        {
          "internalType": "uint256",
          "name": "",
          "type": "uint256"
        }
      ],
      "name": "Plans",
      "outputs": [
        {
          "internalType": "bytes32",
          "name": "name",
          "type": "bytes32"
        },
        {
          "internalType": "uint256",
          "name": "price",
          "type": "uint256"
        }
      ],
      "stateMutability": "view",
      "type": "function"
    },
    {
      "inputs": [],
      "name": "USDNGN",
      "outputs": [
        {
          "internalType": "uint256",
          "name": "",
          "type": "uint256"
        }
      ],
      "stateMutability": "view",
      "type": "function"
    },
    {
      "inputs": [],
      "name": "USDT",
      "outputs": [
        {
          "internalType": "contract ERC20Token",
          "name": "",
          "type": "address"
        }
      ],
      "stateMutability": "view",
      "type": "function"
    },
    {
      "inputs": [],
      "name": "owner",
      "outputs": [
        {
          "internalType": "address",
          "name": "",
          "type": "address"
        }
      ],
      "stateMutability": "view",
      "type": "function"
    },
    {
      "inputs": [
        {
          "internalType": "address",
          "name": "_address",
          "type": "address"
        }
      ],
      "name": "transfer",
      "outputs": [],
      "stateMutability": "nonpayable",
      "type": "function"
    },
    {
      "inputs": [
        {
          "internalType": "uint256",
          "name": "_value",
          "type": "uint256"
        }
      ],
      "name": "setUSDNGNRate",
      "outputs": [],
      "stateMutability": "nonpayable",
      "type": "function"
    },
    {
      "inputs": [
        {
          "internalType": "address",
          "name": "_address",
          "type": "address"
        }
      ],
      "name": "setUsdtTokenAddress",
      "outputs": [],
      "stateMutability": "nonpayable",
      "type": "function"
    },
    {
      "inputs": [
        {
          "internalType": "uint8",
          "name": "_value",
          "type": "uint8"
        }
      ],
      "name": "setEarnPercentage",
      "outputs": [],
      "stateMutability": "nonpayable",
      "type": "function"
    },
    {
      "inputs": [
        {
          "internalType": "uint8",
          "name": "_value",
          "type": "uint8"
        }
      ],
      "name": "setPlanLimit",
      "outputs": [],
      "stateMutability": "nonpayable",
      "type": "function"
    }
  ],
  "bytecode": "0x60806040526096600460006101000a81548160ff021916908360ff1602179055506005600460016101000a81548160ff021916908360ff16021790555034801561004857600080fd5b5033600160006101000a81548173ffffffffffffffffffffffffffffffffffffffff021916908373ffffffffffffffffffffffffffffffffffffffff160217905550610905806100996000396000f3fe608060405234801561001057600080fd5b50600436106100935760003560e01c80638c245933116100665780638c2459331461011f5780638da5cb5b1461013b578063ac73352a14610159578063afe97d6114610175578063c54e44eb1461019157610093565b80631a69523014610098578063395713d7146100b457806376fa3168146100e557806381a972cd14610101575b600080fd5b6100b260048036038101906100ad9190610626565b6101af565b005b6100ce60048036038101906100c99190610689565b610283565b6040516100dc9291906106de565b60405180910390f35b6100ff60048036038101906100fa9190610740565b6102a7565b005b610109610355565b604051610116919061076d565b60405180910390f35b61013960048036038101906101349190610689565b61035b565b005b6101436103f5565b6040516101509190610797565b60405180910390f35b610173600480360381019061016e9190610740565b61041b565b005b61018f600480360381019061018a9190610626565b6104c9565b005b61019961059d565b6040516101a69190610811565b60405180910390f35b600160009054906101000a900473ffffffffffffffffffffffffffffffffffffffff1673ffffffffffffffffffffffffffffffffffffffff163373ffffffffffffffffffffffffffffffffffffffff161461023f576040517f08c379a0000000000000000000000000000000000000000000000000000000008152600401610236906108af565b60405180910390fd5b80600160006101000a81548173ffffffffffffffffffffffffffffffffffffffff021916908373ffffffffffffffffffffffffffffffffffffffff16021790555050565b60036020528060005260406000206000915090508060000154908060010154905082565b600160009054906101000a900473ffffffffffffffffffffffffffffffffffffffff1673ffffffffffffffffffffffffffffffffffffffff163373ffffffffffffffffffffffffffffffffffffffff1614610337576040517f08c379a000000000000000000000000000000000000000000000000000000000815260040161032e906108af565b60405180910390fd5b80600460016101000a81548160ff021916908360ff16021790555050565b60005481565b600160009054906101000a900473ffffffffffffffffffffffffffffffffffffffff1673ffffffffffffffffffffffffffffffffffffffff163373ffffffffffffffffffffffffffffffffffffffff16146103eb576040517f08c379a00000000000000000000000000000000000000000000000000000000081526004016103e2906108af565b60405180910390fd5b8060008190555050565b600160009054906101000a900473ffffffffffffffffffffffffffffffffffffffff1681565b600160009054906101000a900473ffffffffffffffffffffffffffffffffffffffff1673ffffffffffffffffffffffffffffffffffffffff163373ffffffffffffffffffffffffffffffffffffffff16146104ab576040517f08c379a00000000000000000000000000000000000000000000000000000000081526004016104a2906108af565b60405180910390fd5b80600460006101000a81548160ff021916908360ff16021790555050565b600160009054906101000a900473ffffffffffffffffffffffffffffffffffffffff1673ffffffffffffffffffffffffffffffffffffffff163373ffffffffffffffffffffffffffffffffffffffff1614610559576040517f08c379a0000000000000000000000000000000000000000000000000000000008152600401610550906108af565b60405180910390fd5b80600260006101000a81548173ffffffffffffffffffffffffffffffffffffffff021916908373ffffffffffffffffffffffffffffffffffffffff16021790555050565b600260009054906101000a900473ffffffffffffffffffffffffffffffffffffffff1681565b600080fd5b600073ffffffffffffffffffffffffffffffffffffffff82169050919050565b60006105f3826105c8565b9050919050565b610603816105e8565b811461060e57600080fd5b50565b600081359050610620816105fa565b92915050565b60006020828403121561063c5761063b6105c3565b5b600061064a84828501610611565b91505092915050565b6000819050919050565b61066681610653565b811461067157600080fd5b50565b6000813590506106838161065d565b92915050565b60006020828403121561069f5761069e6105c3565b5b60006106ad84828501610674565b91505092915050565b6000819050919050565b6106c9816106b6565b82525050565b6106d881610653565b82525050565b60006040820190506106f360008301856106c0565b61070060208301846106cf565b9392505050565b600060ff82169050919050565b61071d81610707565b811461072857600080fd5b50565b60008135905061073a81610714565b92915050565b600060208284031215610756576107556105c3565b5b60006107648482850161072b565b91505092915050565b600060208201905061078260008301846106cf565b92915050565b610791816105e8565b82525050565b60006020820190506107ac6000830184610788565b92915050565b6000819050919050565b60006107d76107d26107cd846105c8565b6107b2565b6105c8565b9050919050565b60006107e9826107bc565b9050919050565b60006107fb826107de565b9050919050565b61080b816107f0565b82525050565b60006020820190506108266000830184610802565b92915050565b600082825260208201905092915050565b7f596f7520646f206e6f74206861766520746865207065726d6973696f6e20746f60008201527f2063616c6c2074686573652066756e6374696f6e000000000000000000000000602082015250565b600061089960348361082c565b91506108a48261083d565b604082019050919050565b600060208201905081810360008301526108c88161088c565b905091905056fea2646970667358221220f1e726ad28b22a1ca6e1ebc62d62d9cc6b6ca7937f1ba87d3792fc3fcfc6a8bc64736f6c63430008130033",
  "immutableReferences": {},
  "source": "// SPDX-License-Identifier: MIT\npragma solidity ^0.8;\nimport \"./Storage.sol\";\n\ncontract Utils is Storage {\n    modifier isOwner() {\n        require(\n            msg.sender == owner,\n            \"You do not have the permision to call these function\"\n        );\n        _;\n    }\n\n    function transfer(address _address) public isOwner {\n        owner = _address;\n    }\n\n    function setUSDNGNRate(uint256 _value) public isOwner {\n        USDNGN = _value;\n    }\n\n    function setUsdtTokenAddress(address _address) public isOwner {\n        USDT = ERC20Token(_address);\n    }\n\n    function setEarnPercentage(uint8 _value) public isOwner {\n        earnPercentage = _value;\n    }\n\n    function setPlanLimit(uint8 _value) public isOwner {\n        planLimit = _value;\n    }\n}\n",
  "sourcePath": "/Users/user/Documents/Projects/destiny-inv/smrt-cntract/contracts/Utils.sol",
  "compiler": {
    "name": "solc",
    "version": "0.8.19+commit.7dd6d404.Emscripten.clang"
  },
  "schemaVersion": "3.4.13",
  "updatedAt": "2023-06-08T16:49:17.558Z",
  "devdoc": {
    "kind": "dev",
    "methods": {},
    "version": 1
  },
  "userdoc": {
    "kind": "user",
    "methods": {},
    "version": 1
  }
}